{
  "_format": "hh-sol-artifact-1",
  "contractName": "GovTrust",
  "sourceName": "contracts/GovTrust.sol",
  "abi": [
    {
      "inputs": [],
      "stateMutability": "nonpayable",
      "type": "constructor"
    },
    {
      "inputs": [
        {
          "internalType": "address",
          "name": "owner",
          "type": "address"
        }
      ],
      "name": "OwnableInvalidOwner",
      "type": "error"
    },
    {
      "inputs": [
        {
          "internalType": "address",
          "name": "account",
          "type": "address"
        }
      ],
      "name": "OwnableUnauthorizedAccount",
      "type": "error"
    },
    {
      "anonymous": false,
      "inputs": [
        {
          "indexed": false,
          "internalType": "string",
          "name": "action",
          "type": "string"
        },
        {
          "indexed": false,
          "internalType": "bytes32",
          "name": "detailHash",
          "type": "bytes32"
        }
      ],
      "name": "AuditLogStored",
      "type": "event"
    },
    {
      "anonymous": false,
      "inputs": [
        {
          "indexed": true,
          "internalType": "address",
          "name": "beneficiary",
          "type": "address"
        },
        {
          "indexed": false,
          "internalType": "bytes32",
          "name": "hash",
          "type": "bytes32"
        }
      ],
      "name": "CertificateIssued",
      "type": "event"
    },
    {
      "anonymous": false,
      "inputs": [
        {
          "indexed": true,
          "internalType": "address",
          "name": "beneficiary",
          "type": "address"
        },
        {
          "indexed": false,
          "internalType": "uint256",
          "name": "amount",
          "type": "uint256"
        },
        {
          "indexed": false,
          "internalType": "string",
          "name": "department",
          "type": "string"
        }
      ],
      "name": "FundAllocated",
      "type": "event"
    },
    {
      "anonymous": false,
      "inputs": [
        {
          "indexed": true,
          "internalType": "address",
          "name": "previousOwner",
          "type": "address"
        },
        {
          "indexed": true,
          "internalType": "address",
          "name": "newOwner",
          "type": "address"
        }
      ],
      "name": "OwnershipTransferred",
      "type": "event"
    },
    {
      "inputs": [
        {
          "internalType": "address",
          "name": "_beneficiary",
          "type": "address"
        },
        {
          "internalType": "uint256",
          "name": "_amount",
          "type": "uint256"
        },
        {
          "internalType": "string",
          "name": "_department",
          "type": "string"
        }
      ],
      "name": "allocateFund",
      "outputs": [],
      "stateMutability": "nonpayable",
      "type": "function"
    },
    {
      "inputs": [
        {
          "internalType": "uint256",
          "name": "",
          "type": "uint256"
        }
      ],
      "name": "allocations",
      "outputs": [
        {
          "internalType": "address",
          "name": "beneficiary",
          "type": "address"
        },
        {
          "internalType": "uint256",
          "name": "amount",
          "type": "uint256"
        },
        {
          "internalType": "uint256",
          "name": "timestamp",
          "type": "uint256"
        },
        {
          "internalType": "string",
          "name": "department",
          "type": "string"
        }
      ],
      "stateMutability": "view",
      "type": "function"
    },
    {
      "inputs": [
        {
          "internalType": "address",
          "name": "",
          "type": "address"
        }
      ],
      "name": "certificates",
      "outputs": [
        {
          "internalType": "bytes32",
          "name": "hash",
          "type": "bytes32"
        },
        {
          "internalType": "uint256",
          "name": "issueDate",
          "type": "uint256"
        },
        {
          "internalType": "bool",
          "name": "isValid",
          "type": "bool"
        }
      ],
      "stateMutability": "view",
      "type": "function"
    },
    {
      "inputs": [],
      "name": "getAllocationsCount",
      "outputs": [
        {
          "internalType": "uint256",
          "name": "",
          "type": "uint256"
        }
      ],
      "stateMutability": "view",
      "type": "function"
    },
    {
      "inputs": [
        {
          "internalType": "address",
          "name": "_beneficiary",
          "type": "address"
        },
        {
          "internalType": "bytes32",
          "name": "_hash",
          "type": "bytes32"
        }
      ],
      "name": "issueCertificate",
      "outputs": [],
      "stateMutability": "nonpayable",
      "type": "function"
    },
    {
      "inputs": [
        {
          "internalType": "string",
          "name": "_action",
          "type": "string"
        },
        {
          "internalType": "bytes32",
          "name": "_detailHash",
          "type": "bytes32"
        }
      ],
      "name": "logAudit",
      "outputs": [],
      "stateMutability": "nonpayable",
      "type": "function"
    },
    {
      "inputs": [],
      "name": "owner",
      "outputs": [
        {
          "internalType": "address",
          "name": "",
          "type": "address"
        }
      ],
      "stateMutability": "view",
      "type": "function"
    },
    {
      "inputs": [],
      "name": "renounceOwnership",
      "outputs": [],
      "stateMutability": "nonpayable",
      "type": "function"
    },
    {
      "inputs": [
        {
          "internalType": "address",
          "name": "newOwner",
          "type": "address"
        }
      ],
      "name": "transferOwnership",
      "outputs": [],
      "stateMutability": "nonpayable",
      "type": "function"
    },
    {
      "inputs": [
        {
          "internalType": "address",
          "name": "_beneficiary",
          "type": "address"
        },
        {
          "internalType": "bytes32",
          "name": "_hash",
          "type": "bytes32"
        }
      ],
      "name": "verifyCertificate",
      "outputs": [
        {
          "internalType": "bool",
          "name": "",
          "type": "bool"
        }
      ],
      "stateMutability": "view",
      "type": "function"
    }
  ],
  "bytecode": "0x608060405234801561001057600080fd5b5033600073ffffffffffffffffffffffffffffffffffffffff168173ffffffffffffffffffffffffffffffffffffffff16036100845760006040517f1e4fbdf700000000000000000000000000000000000000000000000000000000815260040161007b919061019e565b60405180910390fd5b6100938161009960201b60201c565b506101b9565b60008060009054906101000a900473ffffffffffffffffffffffffffffffffffffffff169050816000806101000a81548173ffffffffffffffffffffffffffffffffffffffff021916908373ffffffffffffffffffffffffffffffffffffffff1602179055508173ffffffffffffffffffffffffffffffffffffffff168173ffffffffffffffffffffffffffffffffffffffff167f8be0079c531659141344cd1fd0a4f28419497f9722a3daafe3b4186f6b6457e060405160405180910390a35050565b600073ffffffffffffffffffffffffffffffffffffffff82169050919050565b60006101888261015d565b9050919050565b6101988161017d565b82525050565b60006020820190506101b3600083018461018f565b92915050565b6110ee806101c86000396000f3fe608060405234801561001057600080fd5b506004361061009d5760003560e01c8063282aba7411610066578063282aba741461016f578063715018a61461018b5780638da5cb5b14610195578063afc47ead146101b3578063f2fde38b146101d15761009d565b806216e526146100a25780630a2642bf146100d45780630dc2ccf3146101075780631908999f146101375780632682fd1a14610153575b600080fd5b6100bc60048036038101906100b791906108ad565b6101ed565b6040516100cb93929190610927565b60405180910390f35b6100ee60048036038101906100e9919061098a565b610224565b6040516100fe9493929190610a56565b60405180910390f35b610121600480360381019061011c9190610ace565b61030c565b60405161012e9190610b0e565b60405180910390f35b610151600480360381019061014c9190610ace565b6103b3565b005b61016d60048036038101906101689190610c5e565b6104a1565b005b61018960048036038101906101849190610cba565b6104e6565b005b610193610618565b005b61019d61062c565b6040516101aa9190610d29565b60405180910390f35b6101bb610655565b6040516101c89190610d44565b60405180910390f35b6101eb60048036038101906101e691906108ad565b610662565b005b60016020528060005260406000206000915090508060000154908060010154908060020160009054906101000a900460ff16905083565b6002818154811061023457600080fd5b90600052602060002090600402016000915090508060000160009054906101000a900473ffffffffffffffffffffffffffffffffffffffff169080600101549080600201549080600301805461028990610d8e565b80601f01602080910402602001604051908101604052809291908181526020018280546102b590610d8e565b80156103025780601f106102d757610100808354040283529160200191610302565b820191906000526020600020905b8154815290600101906020018083116102e557829003601f168201915b5050505050905084565b6000600160008473ffffffffffffffffffffffffffffffffffffffff1673ffffffffffffffffffffffffffffffffffffffff16815260200190815260200160002060020160009054906101000a900460ff1680156103ab575081600160008573ffffffffffffffffffffffffffffffffffffffff1673ffffffffffffffffffffffffffffffffffffffff16815260200190815260200160002060000154145b905092915050565b6103bb6106e8565b604051806060016040528082815260200142815260200160011515815250600160008473ffffffffffffffffffffffffffffffffffffffff1673ffffffffffffffffffffffffffffffffffffffff168152602001908152602001600020600082015181600001556020820151816001015560408201518160020160006101000a81548160ff0219169083151502179055509050508173ffffffffffffffffffffffffffffffffffffffff167f18d583ccb15ddd89232eb4967084260a5d7f1ed6cc710d20c23b7513ae4b0527826040516104959190610dbf565b60405180910390a25050565b6104a96106e8565b7fd7a2dd9fab1adc13aa830a50a4aa8ef8c6f44c66b64705f179f16125c77b839982826040516104da929190610dda565b60405180910390a15050565b6104ee6106e8565b600260405180608001604052808573ffffffffffffffffffffffffffffffffffffffff16815260200184815260200142815260200183815250908060018154018082558091505060019003906000526020600020906004020160009091909190915060008201518160000160006101000a81548173ffffffffffffffffffffffffffffffffffffffff021916908373ffffffffffffffffffffffffffffffffffffffff160217905550602082015181600101556040820151816002015560608201518160030190816105c09190610fb6565b5050508273ffffffffffffffffffffffffffffffffffffffff167f71065612758187a401412af708065152041f72634fdfdca93cc2c5a90a8d34a6838360405161060b929190611088565b60405180910390a2505050565b6106206106e8565b61062a600061076f565b565b60008060009054906101000a900473ffffffffffffffffffffffffffffffffffffffff16905090565b6000600280549050905090565b61066a6106e8565b600073ffffffffffffffffffffffffffffffffffffffff168173ffffffffffffffffffffffffffffffffffffffff16036106dc5760006040517f1e4fbdf70000000000000000000000000000000000000000000000000000000081526004016106d39190610d29565b60405180910390fd5b6106e58161076f565b50565b6106f0610833565b73ffffffffffffffffffffffffffffffffffffffff1661070e61062c565b73ffffffffffffffffffffffffffffffffffffffff161461076d57610731610833565b6040517f118cdaa70000000000000000000000000000000000000000000000000000000081526004016107649190610d29565b60405180910390fd5b565b60008060009054906101000a900473ffffffffffffffffffffffffffffffffffffffff169050816000806101000a81548173ffffffffffffffffffffffffffffffffffffffff021916908373ffffffffffffffffffffffffffffffffffffffff1602179055508173ffffffffffffffffffffffffffffffffffffffff168173ffffffffffffffffffffffffffffffffffffffff167f8be0079c531659141344cd1fd0a4f28419497f9722a3daafe3b4186f6b6457e060405160405180910390a35050565b600033905090565b6000604051905090565b600080fd5b600080fd5b600073ffffffffffffffffffffffffffffffffffffffff82169050919050565b600061087a8261084f565b9050919050565b61088a8161086f565b811461089557600080fd5b50565b6000813590506108a781610881565b92915050565b6000602082840312156108c3576108c2610845565b5b60006108d184828501610898565b91505092915050565b6000819050919050565b6108ed816108da565b82525050565b6000819050919050565b610906816108f3565b82525050565b60008115159050919050565b6109218161090c565b82525050565b600060608201905061093c60008301866108e4565b61094960208301856108fd565b6109566040830184610918565b949350505050565b610967816108f3565b811461097257600080fd5b50565b6000813590506109848161095e565b92915050565b6000602082840312156109a05761099f610845565b5b60006109ae84828501610975565b91505092915050565b6109c08161086f565b82525050565b600081519050919050565b600082825260208201905092915050565b60005b83811015610a005780820151818401526020810190506109e5565b60008484015250505050565b6000601f19601f8301169050919050565b6000610a28826109c6565b610a3281856109d1565b9350610a428185602086016109e2565b610a4b81610a0c565b840191505092915050565b6000608082019050610a6b60008301876109b7565b610a7860208301866108fd565b610a8560408301856108fd565b8181036060830152610a978184610a1d565b905095945050505050565b610aab816108da565b8114610ab657600080fd5b50565b600081359050610ac881610aa2565b92915050565b60008060408385031215610ae557610ae4610845565b5b6000610af385828601610898565b9250506020610b0485828601610ab9565b9150509250929050565b6000602082019050610b236000830184610918565b92915050565b600080fd5b600080fd5b7f4e487b7100000000000000000000000000000000000000000000000000000000600052604160045260246000fd5b610b6b82610a0c565b810181811067ffffffffffffffff82111715610b8a57610b89610b33565b5b80604052505050565b6000610b9d61083b565b9050610ba98282610b62565b919050565b600067ffffffffffffffff821115610bc957610bc8610b33565b5b610bd282610a0c565b9050602081019050919050565b82818337600083830152505050565b6000610c01610bfc84610bae565b610b93565b905082815260208101848484011115610c1d57610c1c610b2e565b5b610c28848285610bdf565b509392505050565b600082601f830112610c4557610c44610b29565b5b8135610c55848260208601610bee565b91505092915050565b60008060408385031215610c7557610c74610845565b5b600083013567ffffffffffffffff811115610c9357610c9261084a565b5b610c9f85828601610c30565b9250506020610cb085828601610ab9565b9150509250929050565b600080600060608486031215610cd357610cd2610845565b5b6000610ce186828701610898565b9350506020610cf286828701610975565b925050604084013567ffffffffffffffff811115610d1357610d1261084a565b5b610d1f86828701610c30565b9150509250925092565b6000602082019050610d3e60008301846109b7565b92915050565b6000602082019050610d5960008301846108fd565b92915050565b7f4e487b7100000000000000000000000000000000000000000000000000000000600052602260045260246000fd5b60006002820490506001821680610da657607f821691505b602082108103610db957610db8610d5f565b5b50919050565b6000602082019050610dd460008301846108e4565b92915050565b60006040820190508181036000830152610df48185610a1d565b9050610e0360208301846108e4565b9392505050565b60008190508160005260206000209050919050565b60006020601f8301049050919050565b600082821b905092915050565b600060088302610e6c7fffffffffffffffffffffffffffffffffffffffffffffffffffffffffffffffff82610e2f565b610e768683610e2f565b95508019841693508086168417925050509392505050565b6000819050919050565b6000610eb3610eae610ea9846108f3565b610e8e565b6108f3565b9050919050565b6000819050919050565b610ecd83610e98565b610ee1610ed982610eba565b848454610e3c565b825550505050565b600090565b610ef6610ee9565b610f01818484610ec4565b505050565b5b81811015610f2557610f1a600082610eee565b600181019050610f07565b5050565b601f821115610f6a57610f3b81610e0a565b610f4484610e1f565b81016020851015610f53578190505b610f67610f5f85610e1f565b830182610f06565b50505b505050565b600082821c905092915050565b6000610f8d60001984600802610f6f565b1980831691505092915050565b6000610fa68383610f7c565b9150826002028217905092915050565b610fbf826109c6565b67ffffffffffffffff811115610fd857610fd7610b33565b5b610fe28254610d8e565b610fed828285610f29565b600060209050601f831160018114611020576000841561100e578287015190505b6110188582610f9a565b865550611080565b601f19841661102e86610e0a565b60005b8281101561105657848901518255600182019150602085019450602081019050611031565b86831015611073578489015161106f601f891682610f7c565b8355505b6001600288020188555050505b505050505050565b600060408201905061109d60008301856108fd565b81810360208301526110af8184610a1d565b9050939250505056fea2646970667358221220d49518ada920efad3be7502df29f0d88f3224a6bdf595965e937e959554078d364736f6c63430008140033",
  "linkReferences": {},
  "deployedLinkReferences": {}
}